:020000040800F2
:1000000018100020C9010008CD010008CF01000828
:10001000D1010008D3010008D5010008000000004C
:10002000000000000000000000000000D7010008F0
:10003000D901000800000000DB010008DD01000814
:10004000DF010008DF010008DF010008DF01000810
:10005000DF010008DF010008DF010008DF01000800
:10006000DF010008DF010008DF010008DF010008F0
:10007000DF010008DF010008DF010008DF010008E0
:10008000DF010008DF010008DF010008DF010008D0
:10009000DF010008DF010008DF010008DF010008C0
:1000A000DF010008DF010008DF010008DF010008B0
:1000B000DF010008DF010008DF010008DF010008A0
:1000C000DF010008DF010008DF010008DF01000890
:1000D000DF0100080F080008DF010008DF01000849
:1000E000DF010008DF010008DF01000800F002F86E
:1000F00000F05AF80AA090E8000C82448344AAF168
:100100000107DA4501D100F04FF8AFF2090EBAE865
:100110000F0013F0010F18BFFB1A43F0010318473B
:1001200064170000841700000A444FF0000C10F818
:10013000013B13F0070408BF10F8014B1D1108BF65
:1001400010F8015B641E05D010F8016B641E01F805
:10015000016BF9D113F0080F1EBF10F8014BAD1C55
:100160000C1B09D16D1E58BF01F801CBFAD505E073
:1001700014F8016B01F8016B6D1EF9D59142D6D3CD
:10018000704700000023002400250026103A28BFF5
:1001900078C1FBD8520728BF30C148BF0B607047F9
:1001A0001FB51FBD10B510BD01F099F81146FFF73E
:1001B000F7FF00F025F801F0B7F803B4FFF7F2FFFE
:1001C00003BC00F015FB000008480047FEE7FEE70F
:1001D000FEE7FEE7FEE7FEE7FEE7FEE7FEE7FEE7F7
:1001E00003480449044A054B70470000ED0000082D
:1001F00018070020181000201808002018080020F8
:100200001CB5092000F09BFA482000F035F94FF4A6
:100210001651482000F036FB00F0A6FB00F0D9FC98
:1002200000F065FC00206E490860D8E000F05FFC3B
:1002300000F06FFC00F026FC40F2DC5000F054F9B6
:1002400000F055FC012367A20021084600F0CEFD16
:10025000012368A21021002000F0C8FD012365A23F
:100260002021002000F0B0FE012362A230210020F6
:1002700000F0EAFE01235FA23921002000F022FFF6
:1002800000F000FC40F2DC5000F02EF900F02FFCF2
:1002900001235AA20021084600F0A8FD00235CA219
:1002A0001021184600F0A2FD01235EA220210020AB
:1002B00000F09CFD002360A23021184600F096FD5E
:1002C00000F0E0FB40F2DC5000F00EF940F2DC50B0
:1002D00000F00AF900F00BFC00235CA21946184656
:1002E00000F084FD0120032343F239021021009025
:1002F000002000F0B0FF0120052343F23902202145
:100300000090002000F0A7FF0120072343F23902EC
:1003100030210090002000F09EFF00F0B3FB40F27F
:10032000DC5000F0E1F800F0E2FB012049494023F5
:100330003C22CDE900100021192000F000FF01232C
:100340002CA23921482000F0BDFE00F09BFB40F2BA
:10035000DC5000F0C9F800241CE000F0C8FBC4F138
:100360002F02D1B2C4F17F02D0B201233AA200F031
:100370003DFDC4F13F02D1B2C4F17F02D0B20123EE
:1003800039A200F033FD00F07DFB502000F0ACF806
:10039000601CC4B2302CE0DB002416E0C4F1500134
:1003A000C8B201232CA2002100F020FDC4F15001AD
:1003B000C8B201232CA2102100F018FD00F062FB4E
:1003C000502000F091F8601CC4B2512CE6DB4FF4D1
:1003D0007A7000F089F84FF47A7000F085F825E71C
:1003E00088812242A3D9A3C6A3D2A3CFA3C2A3CFFD
:1003F000A3D400005946524F424F5400B9CAC8CB4B
:10040000CEF7B4C7BBC6BAD7C2A5A3AC00000000E4
:10041000D1CCBBA8C8FDD4C2CFC2D1EFD6DDA1A339
:1004200000000000B9C2B7ABD4B6D3B0B1CCBFD5D1
:10043000BEA1A3AC00000000CEA8BCFBB3A4BDAD20
:10044000CCECBCCAC1F7A1A30000000031323334A8
:1004500035000000000000205946526F626F74B9E9
:10046000A4D7F7CAD2000000BEDBD0BED6C7B4B452
:10047000BFC6BCBC000000004FF0E021096921F0BC
:1004800004014FF0E0221161C21700EB5272C2F377
:10049000C702234B1A701946097801EB4102C2EBDF
:1004A000C1114FF6FF7202EAC1011E4A1180704766
:1004B00001461B4A12784A434FF0E0235A6100225A
:1004C0009A6101221A6100BF4FF0E022106900F02A
:1004D00001021AB100F48032002AF5D000224FF058
:1004E000E0231A619A61704701460E4A12884A4316
:1004F0004FF0E0235A6100229A6101221A6100BF85
:100500004FF0E022106900F001021AB100F48032CD
:10051000002AF5D000224FF0E0231A619A6170475B
:10052000E0010020E2010020A64A0A400243A64B57
:100530001A6070470146072323EA01021202A24B08
:100540001B1D18684FF6FF031840A04B18431043BB
:100550009D4B1B1D186070472DE9F04107468846EA
:1005600014461D462846FFF7E5FFC5F1040007FACB
:1005700000F60F20284100EA0800064306F00F06A7
:10058000E21704EBD2625211920002F1E022D2F89B
:1005900000212146E31704EBD3635B11A4EB431C5A
:1005A000012303FA0CF31A432046E31704EBD36349
:1005B0005B119B0003F1E023C3F800218448005D38
:1005C00040EA061082490855BDE8F08170B504463E
:1005D0000B46CE1701EB9676C6F38700CE1701EBDC
:1005E0009676B610A1EB8606B606350E794B9B695A
:1005F00043F00103774EB3614FEAB63353F820302E
:100600000F26AE40B343744E46F82030334653F8BD
:10061000203004FA05F61E436F4B43F820606F4B01
:100620001B6801268E4033436C4E336002F0010399
:1006300043B16A4B0C331B6801268E403343674E2F
:100640000C36336002F0020343B1644B08331E687A
:1006500001238B401E43614B08331E6070BD00B503
:1006600000205C490861C86014204861002088614E
:10067000C8610846006840F001000860084640680C
:1006800057490840534948600846006855490840A2
:10069000504908600846006820F480200860084639
:1006A000406820F4FE0048600020886000214FF080
:1006B0000060FFF739FF00BD30BF704772B670476A
:1006C00062B6704700B540480830006840F004004A
:1006D0003D49083108603F48C06940F080503D49BD
:1006E000C8614148406840F480703F49486008460E
:1006F000006840F0040008600846006840F002000E
:100700000860FFF7D9FF00BD3048001D2E49091DC4
:1007100008607047014649062E4A926942F001027C
:100720002C4B9A612C4A083A526822F0E0622A4B1C
:10073000083B5A601A4652680A435A60704730B5FF
:1007400004460025FFF78BFF2248006840F4803004
:100750002049086000BF1F480068400C0028FAD0FC
:100760004FF480601B494860A01EC4B20846406830
:1007700040EA844048600846406840F48030486061
:100780001A48006840F032001849086011480068B3
:1007900040F080700F49086000BF0E480068400EAE
:1007A0000028FAD00B48406840F002000949486030
:1007B00005E008484068C0F3870505F00305022DF1
:1007C000F7D130BD80FFFF1F08ED00E00000FA0503
:1007D00000E400E000100240080001400004014075
:1007E0000000FFF8FFFFF6FE00700040002002400E
:1007F000014600BF704700BF554A128802F0400210
:10080000002AF9D0C2B2524B1B1D1A8070475049C2
:10081000098801F0200111B34D49091D0988C8B2AA
:100820004C49098801F40041C9B94A49098801F4D1
:10083000804161B10A2803D00021464A118020E09E
:100840004449098841F40041424A118019E00D28C9
:1008500006D14049098841F480413E4A118010E0A8
:100860003C490988C1F30D013B4A50543949098874
:10087000491C384A118011460988C72901DD002129
:10088000118070472DE9F05F05460E46300100F0FB
:1008900099FE8146314905FB01F000F093FE824646
:1008A000494600F0ADFD0746384600F06BFE84B2C5
:1008B000204600F087FE8346394600F063FF8246FB
:1008C0004FF0834100F092FE814600F05BFE8046CF
:1008D0004FF6FF7000EA041404EB080084B22048CD
:1008E000806940F004001E4988610846806940F430
:1008F000804088611B48006820F47F6019490860C7
:100900000846006840F40B6008601548C06840F471
:1009100080401349C8600846C06820F48040C86021
:100920000B4808300480001D008842F20C01084387
:1009300007490C3108800846008840F020000880F4
:100940000223252203210846FFF706FEBDE8F09F9B
:1009500000380140E8010020F001002040420F0073
:1009600000100240040801400C48806940F020005B
:100970000A4988610A48006820F4706008490860E4
:100980000846006840F44070086005480C30006874
:1009900040F0040002490C3108607047001002402A
:1009A00000140140FE48806940F01000FC49886155
:1009B000FC48406800F07F40FA49486008464068BB
:1009C000F9490843F74948600846C06840F4706038
:1009D000C8600846C06820F48050C8607047012293
:1009E000F24B1A600022F24BC3F8AC21002116E052
:1009F0000022EE4B083B1A6000F080021AB101227F
:100A00001B1D1A6003E00022E84B1B1F1A60012225
:100A1000E64B083B1A604206100E4A1CD1B2082968
:100A2000E6DB0122E14B1B1D1A60E14BC3F8A82154
:100A300070470022DD4B1A60DD4BC3F8AC2100216A
:100A400016E00022D94B083B1A6000F080021AB170
:100A500001221B1D1A6003E00022D44B1B1F1A60E9
:100A60000122D24B083B1A604206100E4A1CD1B23A
:100A70000829E6DB0122CD4B1B1D1A60CC4BC3F8C5
:100A8000A821704730B5002418E004F1B001C8B2C5
:100A9000FFF7CFFF0020FFF7CCFF1020FFF7C9FFC3
:100AA000002507E0C34901EBC501085DFFF797FF8B
:100AB000681CC5B2802DF5DB601CC4B2082CE4DBD9
:100AC00030BD00B58D20FFF7B4FF1420FFF7B1FF54
:100AD000AF20FFF7AEFF00BD00B58D20FFF7A9FFE7
:100AE0001020FFF7A6FFAE20FFF7A3FF00BD0020F8
:100AF0000CE0002106E00022AE4B03EBC1031A54C8
:100B00004A1CD1B28029F6DB421CD0B20828F0DBA7
:100B1000704730B500240CE0002506E0FF20A54911
:100B200001EBC5010855681CC5B2802DF6DB601CC1
:100B3000C4B2082CF0DBFFF7A5FF30BDF0B51446BA
:100B400000267F2801DC3F2900DDF0BD0B46CF17D2
:100B500001EB5777C7F3C702CF1701EB5777FF10A9
:100B6000A1EBC707FDB20123AB40DEB24CB1914B04
:100B700003EBC0039B5C33438E4F07EBC007BB54B2
:100B800008E08C4B03EBC0039B5CB343894F07EB3E
:100B9000C007BB5400BFD8E72DE9F04706460F4613
:100BA00090469946DDF820A034460CE03D4606E02C
:100BB000524629462046FFF7C1FF681CC5B24D4585
:100BC000F6DD601CC4B24445F0DDFFF75BFFBDE815
:100BD000F08700B5FFF7E6FEAE20FFF72AFFD5202D
:100BE000FFF727FF5020FFF724FFA820FFF721FF82
:100BF0003F20FFF71EFFD320FFF71BFF0020FFF76A
:100C000018FF4020FFF715FF8D20FFF712FF14207B
:100C1000FFF70FFF2020FFF70CFF0220FFF709FF6F
:100C2000A120FFF706FFC820FFF703FFDA20FFF738
:100C300000FF1220FFF7FDFE8120FFF7FAFEEF20F4
:100C4000FFF7F7FED920FFF7F4FEF120FFF7F1FEE2
:100C5000DB20FFF7EEFE3020FFF7EBFEA420FFF7CE
:100C6000E8FEA620FFF7E5FEAF20FFF7E2FEFFF764
:100C70003EFF00BD002116E000224C4B083B1A60ED
:100C800000F080021AB101221B1D1A6003E000224D
:100C9000464B1B1F1A600122444B083B1A60420658
:100CA000100E4A1CD1B20829E6DB70470020012251
:100CB0003E4B083B1A60002111E001223B4B083BF0
:100CC0001A604206100E0022394BC3F8A021374AA1
:100CD000783A12680AB1421CD0B24A1C91B2082973
:100CE000EBDB70472DE9F04780460D4616461F4660
:100CF000DDF8209001202D490C3108602C49C1F805
:100D0000AC01002029490C3108602949C1F8A00133
:100D10000320FFF7AFFF4046FFF7ACFF2846FFF781
:100D2000A9FF3046FFF7A6FF002404E0FFF7BEFF4F
:100D30003855601CC4B24C45F8DB0220FFF7B8FB05
:100D400001201A490C310860BDE8F0872DE9F84F01
:100D500007468846164699460097C246002541E058
:100D600000243BE0E11704EB5171C910A4EBC10171
:100D700049B92046E11704EB5171CA100A9902FBE8
:100D8000061111F805B00BF00100A8B10AEB04023E
:100D9000D1B2009A2A44D0B20B9AFFF7CFFE19E0E5
:100DA000001002400010014033333800A8012242F5
:100DB00000002242B80200200B9B0BB9012300E087
:100DC00000231A460AEB0403D9B2009B2B44D8B285
:100DD000FFF7B4FE4FEA6B0B601CC4B24C45C1DB9D
:100DE000681CC5B2B542BBDBBDE8F88F2DE9F04FFA
:100DF0008BB006468B4615461F460024DDE0285D75
:100E0000A9282ED1601C285CA1282ADB601C285C44
:100E10007930FE49086008460068400108600846CD
:100E20000068C0F3074808460088C0F30729084651
:100E300090F800A0202003AB52464946009040465F
:100E4000FFF750FF03A810231A465946CDE90007C3
:100E50003046FFF77BFFA01CC4B206F11000C6B2FB
:100E6000ABE0285DA12839DB285DA32836DC601CB7
:100E7000285CA12832DB285DA1385E214843E34984
:100E80000860601C285CA13809680844DF490860D4
:100E9000084600684001086008460068C0F307483B
:100EA00008460088C0F30729084690F800A02020D3
:100EB00003AB5246494600904046FFF713FF03A894
:100EC00010231A465946CDE900073046FFF73EFF8A
:100ED000A01CC4B206F11000C6B26EE0285DB028B6
:100EE0003ADB285DF72837DC601C285CA12833DB5F
:100EF000285DB0385E214843C4490860601C285C06
:100F000000F2AD2009680844C0490860084600683E
:100F10004001086008460068C0F30748084600889A
:100F2000C0F30729084690F800A0202003AB5246E2
:100F3000494600904046FFF7D5FE03A810231A4605
:100F40005946CDE900073046FFF700FFA01CC4B2A8
:100F500006F11000C6B230E0285D20282BDB285DAA
:100F60007E2828DC285D2038A94901EB0010A7491C
:100F7000086008460068C0F3074808460088C0F3C8
:100F80000729084690F800A0102003AB52464946B6
:100F900000904046FFF7A6FE03A8102308225946FA
:100FA000CDE900073046FFF7D1FE601CC4B206F160
:100FB0000800C6B201E0601CC4B2285D00283FF7FB
:100FC0001EAF0BB0BDE8F08F2DE9F04F87B006469D
:100FD0008B4615461F46002430E0285D20282BDB79
:100FE000285D7E2828DC285D20388A4901EB001026
:100FF0008649086008460068C0F30748084600882C
:10100000C0F30729084690F800A0102003AB524611
:10101000494600904046FFF765FE03A810230822CA
:101020005946CDE900073046FFF790FE601CC4B278
:1010300006F10800C6B201E0601CC4B2285D0028B9
:10104000CBDC07B0BDE8F08F2DE9FF5F06468B468D
:1010500015461F46002430E0285D20282BDB285D44
:101060007E2828DC285D203846F2C06101EBC000F4
:101070006649086008460068C0F3074808460088CB
:10108000C0F30729084690F800A0072002AB52469B
:10109000494600904046FFF725FE02A80823072294
:1010A0005946CDE900073046FFF750FE601CC4B238
:1010B000F01DC6B201E0601CC4B2285D0028CBDC84
:1010C000BDE8FF9F2DE9FF5F06468B4615461F468C
:1010D00000242FE0285D20282ADB285D7E2827DCDD
:1010E000285D20384C4901EBC0004849086008469B
:1010F0000068C0F3074808460088C0F3072908467F
:1011000090F800A0052002AB5246494600904046A8
:10111000FFF7E8FD02A8072305225946CDE900079D
:101120003046FFF713FE601CC4B2701DC6B201E06A
:10113000601CC4B2285D0028CCDCBDE8FF9F2DE90F
:10114000F84F07468846164699460097C24600253E
:1011500035E000242FE0E11704EB5171C910A4EB36
:10116000C10149B92046E11704EB5171CA100A992F
:1011700002FB061111F805B00BF0010048B10AEBB3
:101180000402D1B2009A2A44D0B20B9AFFF7D6FCDF
:101190000DE00B9B0BB9012300E000231A460AEB7C
:1011A0000403D9B2009B2B44D8B2FFF7C7FC4FEA27
:1011B0006B0B601CC4B24C45CDDB681CC5B2B5429C
:1011C000C7DBBDE8F88F10B50246012000E05043B0
:1011D0000B00A1F10104E1B2F9D110BD2DE9F04FEE
:1011E00087B082468B4615461E4605F13000C4B2D4
:1011F000202C2DDB7E2C2BDCA4F12000044901EBFC
:101200000010024908600846006807E0EC01002071
:10121000C0B7030080CF0300C0BF0300C0F307477F
:1012200008460088C0F30728084690F80090102070
:1012300003AB4A46414600903846FFF753FD03A8EA
:10124000102308225946CDE900065046FFF77EFDDF
:1012500007B0BDE8F08F2DE9F05F0646894690465D
:101260001D46DDF828A04FF0000B00242BE0281BC2
:10127000401EC1B20A20FFF7A6FFB8FBF0F00A211A
:10128000B0FBF1F201FB1207BBF1000F0FD1681E9A
:10129000A0420CDD4FB9082101FB0461C8B25346DE
:1012A0000BA24946FFF7A2FD0BE04FF0010B08210E
:1012B00001FB0461C8B253463A464946FFF78EFF28
:1012C00000BF601CC4B2AC42D1DBBDE8F09F00009F
:1012D00020000000704770477047704770477546A0
:1012E00000F028F8AE4605006946534620F0070096
:1012F000854618B020B5FEF773FFBDE820404FF0DB
:1013000000064FF000074FF000084FF0000B21F0EF
:101310000701AC46ACE8C009ACE8C009ACE8C009BC
:10132000ACE8C0098D4670470446AFF30080204604
:10133000FEF743FF00487047B806002090EA010F0F
:1013400048BF81F0004100F12E82421A3CBF801A52
:1013500089184FEAD0524FF07F4C1CEA410FA2EBA4
:10136000D15318BF9CEA026F00F03B804FF0004C55
:101370004CEA00204CEA012121FA03FC10EB0C0C92
:101380001ED202F1FF325FEA1C2040EBC25038BF90
:1013900070471CF07F0F4FEA400C18BFBCF17F4F25
:1013A00038BF7047C3F12003994008BF20F0010007
:1013B000BCF17F4F38BF7047A0F1C04000F0DDB9ED
:1013C0004FEA3C00000A40EBC25028BF1CF0FF0F60
:1013D0004FEA400CE6D018BFBCF17F4F38BF7047D2
:1013E000EAE79CEA026F05D010EA5C0F08BF00F044
:1013F0000040704710B500F07AF900BF64FBBE3EB4
:101400004FF47F0C1CEAD0121EBF1CEAD11392EAE3
:101410000C0F93EA0C0F00F0858090EA010F48BF93
:1014200042F4807240F4000C41F400002CF07F4143
:1014300020F07F4000B58142A2EB03020FF2081CAE
:10144000ACEB504EC0F100009EF800E04FEA4E0EAB
:1014500000FB0EFC38BF49004FEA2C1C02F5FA02D3
:101460000CFB0EF34FEACE1E4FEA112C4FEAC121BE
:101470000EEB635E42EB22420EFB0CFC4FEA1C5368
:1014800000FB03114FEA112C4FEA01310EFB0CFC5B
:101490004FEADC4C00FB0C11C14228BF09184CEB91
:1014A00003335DF804EB10EB410143EBC250B2F59E
:1014B0007C0F38BF704729D512F0F00F1CBF00F128
:1014C000C04000F000407047008182838485868799
:1014D00088898B8C8D8E8F919293959697999A9CF3
:1014E0009D9FA0A2A3A5A7A8AAACAEB0B2B3B5B762
:1014F000B9BCBEC0C2C5C7C9CCCED1D4D7D9DCDF38
:10150000E2E6E9ECF0F3F7FAFE0000004FEA400CE7
:101510000CF1807CBCF17E4F28BF7047B0F1C04019
:1015200000F02BB990EA010F0CEAD11348BF42F446
:101530008072624538BF634507D213F47F0F16D01F
:1015400080EA010000F00040704710B500F0CFF8CD
:10155000097EFC3E00F005B880EA010000F0004082
:10156000704780EA010000F0004000F006B912F474
:101570007F0F04BF0248704780EA010000F0FDB809
:101580000000C07FC10DD1F19E0206DB4FEA0023AF
:1015900043F0004323FA02F07047004207D54FEAB8
:1015A0004001B1F1FE4F02D24FF00000704710B57C
:1015B00000F09DF849922480002070476FEA2000D7
:1015C00070470000B0FA80F310FA03F2C3F19D03F4
:1015D0000AD0D90501EB1220530638BF704700F13D
:1015E000010008BF20F00100704700004FF47F0C9D
:1015F0001CEAD0121EBF1CEAD11392EA0C0F93EA28
:101600000C0F00F0478090EA010F48BF42F480724F
:101610004FF0004C4CEA00204CEA012102EB03029F
:10162000A0FB0113A2F50002002918BF43F001033B
:101630005B0028BF4FEA330342EB22425FEA132CE0
:101640004CEBC2502EBFBCEB436FB2F57C0F704722
:101650004FEA036CBCF1004F08BF20F00100B2F567
:101660007C0F38BF70470BD582F0FF0212F5803F28
:10167000C8BF704700F1C040D8BF00F000407047BD
:1016800000F5000C5FEA4C0C48BF7047B0F1C04059
:1016900000F073B890EA010F0CEAD11348BF42F48E
:1016A0008072624538BF634504D280EA010000F0D1
:1016B0000040704710B500F01AF800BF8900013EE5
:1016C00000F007B800F009B85FEA410C5FEA1C6C53
:1016D00008D080EA010000F050B85FEA400C5FEAF1
:1016E0001C6CF6D14FF00040A0F5800070470EF161
:1016F000020E2EF0030E5EF8044B244204D44FEA8F
:101700004102B2F17F4F11D84FEA4003B3F17F4F4E
:101710000CD80ED14FEAD07CB2F17F4F0CEB4C0CC1
:101720000CF1020C08BF4CEBD17C04E04FF0080C2C
:1017300001E04FEAD17C0CEB4C0324FA03F404F0F3
:101740000704B4F1040C06D20EEB840CBDE8104083
:101750004CF0010C6047DFE80CF0070802024FF084
:101760000040A0F5800010BD0846420018BFD2F12D
:10177000807288BF00F0004010BDFF2141EAD050C8
:10178000C005704780F0004090EA010F7FF5DDADA5
:1017900081F0004100F007B890EA010F48BF81F0E6
:1017A00000413FF5D2AD421A04D882F00042A0EBCE
:1017B000020011444FEAD0524FF07F4C1CEA410F17
:1017C000A2EBD15318BF9CEA026F4AD04FF0004CF5
:1017D0004CEA00204CEA012121FA03FCB0EB0C0C8E
:1017E0000FD412F0FE0F36D05FEA4C001DD5001268
:1017F00040EBC25038BF70471CF03F0F18BF704716
:101800000BE0A2F101025FEA1C2040EBC25038BF9E
:1018100070471CF07F0F18BF7047C3F12003994039
:1018200014BF401E20F00100704780084FEA1223C9
:1018300008BF7047B0FA80FCA2EB0C02CCF1280C78
:1018400060FA0CF093EA122F04BF00EBC25070470D
:101850004FEAC3707047130A5FEADC1008BF704795
:10186000F6E79CEA026F04D010EA5C0F08BF002084
:10187000704710B5FFF73BFF40DFF63E81F00040B8
:1018800070470000A418000800000020F0010000CC
:10189000280100086C190008F0010020280E000043
:1018A00084010008011D000C2880C0E0E0F03838F9
:1018B000ECC482801933300BF0F8FCFEFF3F1F07A9
:1018C000030108091D013FFFFFFEFEF8E0412BC0A8
:1018D000E0352AFF372936811B077F14031BFFFFE2
:1018E0002BE0F837ADFFFF7F0F38612918021A3F50
:1018F0004939ACFFFF0F144BFEFCAA000818C0FFCB
:10190000DFC1E07030593B2B03C0011AE001480EE3
:10191000709C9F8FCF7F7D3C3E1E1F0F07FB0118E1
:101920001D80879FBF3C480F808080E0E1F1F9DD9A
:10193000DFDFCFC7C7C3464901180BF0F0F0707066
:101940007078383818014D0C0C0C01012A0301186D
:10195000090707070F0F1F3F7F011D3F3F3F1F0173
:0C1960001A0F011916291D19250120007D
:04000005080000ED02
:00000001FF
