:020000040800F2
:1000000048080020CD010008D1010008D3010008F4
:10001000D5010008D7010008D90100080000000040
:10002000000000000000000000000000DB010008EC
:10003000DD01000800000000DF010008E101000808
:10004000E3010008E3010008E3010008E301000800
:10005000E3010008E3010008E3010008E3010008F0
:10006000E3010008E3010008E3010008E3010008E0
:10007000E3010008E3010008E3010008E3010008D0
:10008000E3010008E3010008E3010008E3010008C0
:10009000E3010008E3010008E3010008E3010008B0
:1000A000E3010008E3010008E3010008E3010008A0
:1000B000E3010008E3010008E3010008E301000890
:1000C000E3010008E3010008E3010008E301000880
:1000D000E3010008E3010008E3010008E301000870
:1000E000E3010008E3010008E301000800F002F862
:1000F00000F05CF80AA090E8000C82448344AAF166
:100100000107DA4501D100F051F8AFF2090EBAE863
:100110000F0013F0010F18BFFB1A43F0010318473B
:100120009C190000BC1900000A444FF0000C10F8A4
:10013000013B13F0070408BF10F8014B1D1108BF65
:1001400010F8015B641E05D010F8016B641E01F805
:10015000016BF9D113F0080F1EBF10F8014BAD1C55
:100160000C1B09D16D1E58BF01F801CBFAD505E073
:1001700014F8016B01F8016B6D1EF9D59142D6D3CD
:10018000704700000023002400250026103A28BFF5
:1001900078C1FBD8520728BF30C148BF0B607047F9
:1001A0001FB5AFF300801FBD10B510BD01F0BBF847
:1001B0001146FFF7F5FF00F023F801F0D9F8FFF73B
:1001C000F3FF00F019FB000030BF000008480047B3
:1001D000FEE7FEE7FEE7FEE7FEE7FEE7FEE7FEE7F7
:1001E000FEE7FEE703480449024A044B704700005B
:1001F000ED000008480600204808002048060020BE
:100200001CB5092000F09EFA482000F035F94FF4A3
:100210001651482000F0FEFA01F05EF800F07AFC7A
:1002200000F005FC00206E490860D8E000F0FFFBFC
:1002300000F00FFC00F0C6FB40F2DC5000F033F998
:1002400000F0F5FB012367A20021084600F07CFDC9
:10025000012368A21021002000F076FD012365A291
:100260002021002000F07EFE012362A23021002028
:1002700000F0C2FE01235FA23921002000F004FF3C
:1002800000F0A0FB40F2DC5000F00DF900F0CFFBD5
:1002900001235AA20021084600F056FD00235CA26B
:1002A0001021184600F050FD01235EA220210020FD
:1002B00000F04AFD002360A23021184600F044FD02
:1002C00000F080FB40F2DC5000F0EDF840F2DC5032
:1002D00000F0E9F800F0ABFB00235CA219461846D9
:1002E00000F032FD01230093032343F23902102171
:1002F000002000F0A7FF01230093052343F23902F9
:100300002021002000F09EFF01230093072343F2E9
:1003100039023021002000F095FF00F053FB40F23D
:10032000DC5000F0C0F800F082FB0123494ACDE91F
:10033000002340233C220021192000F0ECFE012381
:100340002CA23921482000F09FFE00F03BFB40F238
:10035000DC5000F0A8F800241CE000F068FBC4F1B9
:100360002F02D1B2C4F17F02D0B201233AA200F031
:10037000EBFCC4F13F02D1B2C4F17F02D0B2012341
:1003800039A200F0E1FC00F01DFB502000F08BF8DA
:10039000601CC4B2302CE0DB002416E0C4F1500134
:1003A000C8B201232CA2002100F0CEFCC4F1500100
:1003B000C8B201232CA2102100F0C6FC00F002FB01
:1003C000502000F070F8601CC4B2512CE6DB4FF4F2
:1003D0007A7000F068F84FF47A7000F064F825E75E
:1003E00088812242A3D9A3C6A3D2A3CFA3C2A3CFFD
:1003F000A3D400005946524F424F5400B9CAC8CB4B
:10040000CEF7B4C7BBC6BAD7C2A5A3AC00000000E4
:10041000D1CCBBA8C8FDD4C2CFC2D1EFD6DDA1A339
:1004200000000000B9C2B7ABD4B6D3B0B1CCBFD5D1
:10043000BEA1A3AC00000000CEA8BCFBB3A4BDAD20
:10044000CCECBCCAC1F7A1A30000000031323334A8
:1004500035000000000000205946526F626F74B9E9
:10046000A4D7F7CAD2000000BEDBD0BED6C7B4B452
:10047000BFC6BCBC000000004FF0E021096921F0BC
:1004800004014FF0E02211610146C21700EB5272E5
:10049000D2101F4B1A70194609784FF47A725143E3
:1004A0009A1C118070471A4A921C128842434FF0DE
:1004B000E0235A6100229A6101221A6100BF4FF0C5
:1004C000E022116911F0010F02D011F4803FF6D043
:1004D00000224FF0E0231A619A6170470C4A1278AB
:1004E00042434FF0E0235A6100229A6101221A61CF
:1004F00000BF4FF0E022116911F0010F02D011F49A
:10050000803FF6D000224FF0E0231A619A617047D5
:10051000E0010020AC4A0A400243AC4B1A6070472D
:10052000072323EA00021202A84B1B1D19684FF68D
:10053000FF031940A64B194311434FF0E023C3F8C2
:100540000C1D70472DE9F04704460D4616461F4620
:100550003046F11706EB91714FEAA109F11706EB4E
:1005600091718910A6EB810101F0FF0A042101EBD2
:10057000CA0000F0FF0A3846FFF7D2FFC7F10400B7
:1005800004FA00F80F203841284040EA080808F033
:100590000F08202E09DA8F4800680121B140084376
:1005A0004FF0E021C1F800010BE08A48001D01680E
:1005B000A6F120020120904001434FF0E020C0F856
:1005C0000411854850F8290008FA0AF101438248CD
:1005D00040F82910BDE8F08770B50D46CE1701EB45
:1005E0009676B310CE1701EB9676B610A1EB860681
:1005F000B606340E794DAD6945F00105774EB5610B
:100600004FEAB63555F823600F25A540AE43744D2B
:1006100045F8236055F8235000FA04F63543704E30
:1006200046F823506F4D2E6801258D402E436C4DAA
:10063000083DC5F8006412F0010F09D0694D0C3572
:100640002E6801258D402E43654D083DC5F80C648C
:1006500012F0020F09D0634D08352E6801258D4038
:100660002E435F4D083DC5F8086470BD00B50020FD
:100670005A490861C8601420486100208861C86137
:100680000846006840F00100086008464068564986
:1006900008405249486008460068544908404F499C
:1006A00008600846006820F480200860084640681A
:1006B00020F4FE0048600020886000214FF00060B8
:1006C000FFF728FF00BD10B540480830006840F033
:1006D00004004FF0E021C1F8100D4048C06940F01F
:1006E00080503E49C8614248406840F480704049AB
:1006F00048600846006840F004000860084600684A
:1007000040F002000860FFF75FFD10BD3048001D9B
:100710002E49091D086070470146084649062F4AC0
:10072000926942F001022D4B9A612D4A083A5268B3
:1007300022F0E0622A4B083B5A601A4652680A438C
:100740005A60704730B504460025FFF78FFF2348F5
:10075000006840F480302149086000BF1F480068ED
:10076000400CFBD04FF480601C494860A01EC4B20E
:100770000846406840EA844048600846406840F4C3
:10078000803048601B48006840F03200194908601A
:100790001248006840F080701049086000BF0F48A0
:1007A0000068400EFBD00D48406840F002000B4945
:1007B000486005E009484068C0F3870505F0030577
:1007C000022DF7D130BD000080FFFF1F08ED00E0D3
:1007D0000000FA0500E100E000E400E00010024043
:1007E00008000140000401400000FFF8FFFFF6FE92
:1007F0000070004000200240014600BF704700BF6B
:10080000324A128812F0400FFAD0C2B22F4B1B1D91
:100810001A8070472DE9F05F04460D46280100F06C
:1008200074FF81462A4904FB01F000F06EFF824606
:10083000494600F033FE0646304600F021FF87B2FD
:10084000384600F062FF8346314601F00CF88246DC
:100850004FF0834100F05EFF814600F011FF8046BB
:100860003F0107EB080087B21A48806940F0040096
:10087000184988610846806940F4804088611648BC
:10088000006820F47F601549C1F804080846D0F8D4
:10089000040840F40B60C1F804080E48C06840F436
:1008A00080400C49C8600846C06820F48040C86099
:1008B0000B48A0F8087805480C30008842F20C017B
:1008C000084302490C310880BDE8F09F0038014020
:1008D00040420F00001002400408014000000140A7
:1008E00000300140FF48806940F01000FD498861F8
:1008F000FD48406800F07F40FB494860084640687A
:10090000FA490843F84948600846C06840F47060F6
:10091000C8600846C06820F48050C8607047012253
:10092000F34B1A600022F34BC3F8AC21002116E010
:100930000022EF4B083B1A6010F0800F03D0012219
:100940001B1D1A6003E00022E94B1B1F1A600122E5
:10095000E74B083B1A604206100E4A1CD1B2082928
:10096000E6DB0122E24B1B1D1A60E24BC3F8A82113
:1009700070470022DE4B1A60DE4BC3F8AC21002129
:1009800016E00022DA4B083B1A6010F0800F03D00B
:1009900001221B1D1A6003E00022D54B1B1F1A60A9
:1009A0000122D34B083B1A604206100E4A1CD1B2FA
:1009B0000829E6DB0122CE4B1B1D1A60CD4BC3F884
:1009C000A821704730B5002418E004F1B001C8B286
:1009D000FFF7CFFF0020FFF7CCFF1020FFF7C9FF84
:1009E000002507E0C44901EBC501085DFFF797FF4B
:1009F000681CC5B2802DF5DB601CC4B2082CE4DB9A
:100A000030BD00B58D20FFF7B4FF1420FFF7B1FF14
:100A1000AF20FFF7AEFF00BD00B58D20FFF7A9FFA7
:100A20001020FFF7A6FFAE20FFF7A3FF00BD0020B8
:100A30000CE0002106E00022AF4B03EBC1031A5487
:100A40004A1CD1B28029F6DB421CD0B20828F0DB68
:100A5000704730B500250CE0002406E0FF20A649D1
:100A600001EBC4014855601CC4B2802CF6DB681C45
:100A7000C5B2082DF0DBFFF7A5FF30BDF0B50025AE
:100A80007F2801DC3F2900DDF0BD0E46CF1701EBCA
:100A90005777FB10CF1701EB5777FF10A1EBC70774
:100AA000FCB20126A640F5B24AB1934E06EBC00651
:100AB000F65C2E43904F07EBC007FE5408E08E4EC5
:100AC00006EBC006F65CAE438B4F07EBC007FE5447
:100AD000DAE72DE9F04704460D4616461F46DDF8D5
:100AE0002090A24610E0A84608E04A4641465046FB
:100AF000FFF7C4FF08F1010000F0FF08B845F4DD7E
:100B00000AF1010000F0FF0AB245ECDDFFF75AFFE1
:100B1000BDE8F08700B5FFF7E5FEAE20FFF729FF3F
:100B2000D520FFF726FF5020FFF723FFA820FFF76F
:100B300020FF3F20FFF71DFFD320FFF71AFF002003
:100B4000FFF717FF4020FFF714FF8D20FFF711FF7D
:100B50001420FFF70EFF2020FFF70BFF0220FFF706
:100B600008FFA120FFF705FFC820FFF702FFDA20EA
:100B7000FFF7FFFE1220FFF7FCFE8120FFF7F9FED2
:100B8000EF20FFF7F6FED920FFF7F3FEF120FFF785
:100B9000F0FEDB20FFF7EDFE3020FFF7EAFEA42099
:100BA000FFF7E7FEA620FFF7E4FEAF20FFF7E1FE28
:100BB000FFF73DFF00BD002116E000224C4B083B33
:100BC0001A6010F0800F03D001221B1D1A6003E091
:100BD0000022474B1B1F1A600122454B083B1A603D
:100BE0004206100E4A1CD1B20829E6DB70470020ED
:100BF00001223F4B083B1A60002111E001223C4BCF
:100C0000083B1A604206100E00223A4BC3F8A0219E
:100C1000374A783A12680AB1421CD0B24A1C91B2E3
:100C20000829EBDB70472DE9F04704460D461646D0
:100C30001F46DDF8209001202D490C3108602D4918
:100C4000C1F8AC0100202A490C3108602949C1F8DB
:100C5000A0010320FFF7AFFF2046FFF7ACFF2846B7
:100C6000FFF7A9FF3046FFF7A6FF4FF0000807E0A7
:100C7000FFF7BDFF07F8080008F1010000F0FF08CA
:100C8000C845F5DB0220FFF729FC012018490C318B
:100C90000860BDE8F0872DE9F84F04460D4616467A
:100CA0001F46A046A9464FF0000B49E000200090E7
:100CB0003FE00098C11700EB5171C910B0EBC101C2
:100CC00009D10098C11700EB5171C9100A9A01FBB4
:100CD000062111F80BA01AF0010F16D0009A4A4411
:100CE000D1B20BE000100240001001403333380055
:100CF000A801224200002242E801002008EB0B027A
:100D0000D0B20B9AFFF7BAFE0DE00B9B0BB9012393
:100D100000E00023DAB2009B4B44D9B208EB0B038E
:100D2000D8B2FFF7ABFE4FEA6A0A0098401CC0B287
:100D300000900098B842BCDB0BF1010000F0FF0B03
:100D4000B345B3DBBDE8F88F2DE9F04F8BB0044617
:100D50000D4616461F464FF00008FBE016F8080047
:100D6000A92833D108F10100305CA1282EDB08F15D
:100D70000100305C7930FE49086008460068400197
:100D8000086008460068C0F3074908460068C0F3D9
:100D9000072A0846006800F0FF0B2023009303ABEE
:100DA0005A4651464846FFF73EFF03AA1023CDE9B5
:100DB00000271A4629462046FFF76DFF08F102007A
:100DC00000F0FF0804F11000C4B2C3E016F80800F8
:100DD000A12840DB16F80800A3283CDC08F101003C
:100DE000305CA12837DB16F80800A1385E214843A3
:100DF000DF49086008F10100305CA1380968084447
:100E0000DB49086008460068400108600846006841
:100E1000C0F3074908460068C0F3072A084600687F
:100E200000F0FF0B2023009303AB5A46514648467F
:100E3000FFF7F9FE03AA1023CDE900271A46294639
:100E40002046FFF728FF08F1020000F0FF0804F138
:100E50001000C4B27EE016F80800B02841DB16F896
:100E60000800F7283DDC08F10100305CA12838DBE0
:100E700016F80800B0385E214843BD49086008F103
:100E80000100305C00F2AD2009680844B8490860F0
:100E9000084600684001086008460068C0F307493A
:100EA00008460068C0F3072A0846006800F0FF0BF8
:100EB0002023009303AB5A4651464846FFF7B3FE42
:100EC00003AA1023CDE900271A4629462046FFF73A
:100ED000E2FE08F1020000F0FF0804F11000C4B2C5
:100EE00038E016F80800202830DB16F808007E28C5
:100EF0002CDC16F8080020389E4901EB00109C49B4
:100F0000086008460068C0F3074908460068C0F357
:100F1000072A0846006800F0FF0B1023009303AB7C
:100F20005A4651464846FFF77EFE03AA1023CDE9F4
:100F30000027082229462046FFF7ADFE08F10100F0
:100F400000F0FF0804F10800C4B203E008F101005A
:100F500000F0FF0816F8080000283FF7FFAE0BB0BE
:100F6000BDE8F08F2DE9F04F87B004460D461646D8
:100F70001F464FF0000838E016F80800202830DB44
:100F800016F808007E282CDC16F8080020387A496C
:100F900001EB00107649086008460068C0F3074975
:100FA00008460068C0F3072A0846006800F0FF0BF7
:100FB0001023009303AB5A4651464846FFF733FED1
:100FC00003AA1023CDE90027082229462046FFF76F
:100FD00062FE08F1010000F0FF0804F10800C4B24D
:100FE00003E008F1010000F0FF0816F808000028EF
:100FF000C2DC07B0BDE8F08F2DE9FF5F04460D4667
:1010000016461F464FF0000838E016F80800202862
:1010100030DB16F808007E282CDC16F80800203893
:1010200046F2C06101EBC000514908600846006803
:10103000C0F3074908460068C0F3072A084600685D
:1010400000F0FF0B0723009302AB5A465146484677
:10105000FFF7E9FD02AA0823CDE900270722294668
:101060002046FFF718FE08F1010000F0FF08E01D20
:10107000C4B203E008F1010000F0FF0816F8080010
:101080000028C2DCBDE8FF9F2DE9FF5F04460D4646
:1010900016461F464FF0000837E016F808002028D3
:1010A0002FDB16F808007E282BDC16F80800203805
:1010B000324901EBC0002E49086008460068C0F3C1
:1010C000074908460068C0F3072A0846006800F090
:1010D000FF0B0523009302AB5A4651464846FFF7E3
:1010E000A2FD02AA0723CDE90027052229462046B2
:1010F000FFF7D1FD08F1010000F0FF08601DC4B248
:1011000003E008F1010000F0FF0816F808000028CD
:10111000C3DCBDE8FF9F2DE9F84F04460D46164697
:101120001F46A046A9464FF0000B44E00020009067
:101130003AE00098C11700EB5171C910B0EBC10142
:1011400009D10098C11700EB5171C9100A9A01FB2F
:10115000062111F80BA01AF0010F11D0009A4A4491
:10116000D1B208EB0B02D0B20B9AFFF787FC15E067
:10117000E4010020C0B7030080CF0300C0BF03001C
:101180000B9B0BB9012300E00023DAB2009B4B4418
:10119000D9B208EB0B03D8B2FFF770FC4FEA6A0A2A
:1011A0000098401CC0B200900098B842C1DB0BF11F
:1011B000010000F0FF0BB345B8DBBDE8F88F10B5B8
:1011C0000246012000E050430B00A1F10104E1B20E
:1011D000F9D110BD2DE9F04F87B004460D461646F3
:1011E0001F4606F1300000F0FF0BBBF1200F26DB9D
:1011F000BBF17E0F23DCABF12000344901EB001082
:101200003349086008460068C0F30748084600688C
:10121000C0F307290846006800F0FF0A1023009376
:1012200003AB524649464046FFF7FDFC03AA102394
:10123000CDE90027082229462046FFF72CFD07B0FC
:10124000BDE8F08F2DE9F05F04460D4616461F46B7
:10125000DDF828804FF0000BD94632E0A7EB0900FB
:10126000401EC1B20A20FFF7AAFFB6FBF0F00A2128
:10127000B0FBF1F201FB120000F0FF0ABBF1000F1E
:1012800011D1781E48450EDDBAF1000F09D10821B1
:1012900001FB0941C8B243460EA22946FFF754FD9F
:1012A0000BE04FF0010B082101FB0941C8B2434696
:1012B00052462946FFF78EFF00BF09F1010000F0FA
:1012C000FF09B945CADBBDE8F09F0000C0B70300C5
:1012D000E4010020200000000D48806940F020005B
:1012E0000B4988610B48006820F470600A49C1F816
:1012F00000040846D0F8000440F44070C1F800042F
:101300000846D0F80C0440F00400C1F80C04704703
:101310000010024000140140001001407047704767
:10132000704770477047754600F028F8AE460500D4
:101330006946534620F00700854618B020B5FEF7F1
:1013400051FFBDE820404FF000064FF000074FF07E
:1013500000084FF0000B21F00701AC46ACE8C009D3
:10136000ACE8C009ACE8C009ACE8C0098D467047DC
:101370000446AFF300802046FEF721FF0048704787
:10138000E805002090EA010F48BF81F0004100F11C
:101390007C82421A3CBF801A89184FEAD0524FF023
:1013A0007F4C1CEA410FA2EBD15318BF9CEA026F9D
:1013B00000F040804FF0004C4CEA00204CEA012144
:1013C00021FA03FC10EB0C0C23D202F1FF325FEA8E
:1013D0001C2040EBC25038BF70471CF07F0F4FEA13
:1013E000400C18BFBCF17F4F38BF7047C3F12003DA
:1013F000994008BF20F00100BCF17F4F38BF704713
:10140000A0F1C0404FF0FF0141EAD0514FEAC15076
:1014100070474FEA3C00000A40EBC25028BF1CF066
:10142000FF0F4FEA400CE1D018BFBCF17F4F38BF2F
:101430007047E5E79CEA026F05D010EA5C0F08BF31
:1014400000F000407047BCEB410F4FEA400228BF5C
:101450009445DFF828C0C0F01580AFF30080B2EBF0
:10146000410F05D012F1807F08BF704708467047D2
:1014700090EA010F58BF704701487047010000040F
:101480000000C07F014800F0CEBA00000000C07F1D
:10149000014800F0C8BA00000000C07F4FF47F0C84
:1014A0001CEAD0121EBF1CEAD11392EA0C0F93EA79
:1014B0000C0F00F0A58090EA010F48BF42F4807243
:1014C00040F4000C41F400002CF07F4120F07F40FC
:1014D00000B58142A2EB03020FF2401CACEB504E70
:1014E000C0F100009EF800E04FEA4E0E00FB0EFC3B
:1014F00038BF49004FEA2C1C02F5FA020CFB0EF330
:101500004FEACE1E4FEA112C4FEAC1210EEB635E6B
:101510000EFB0CFC4FEA1C5300FB03114FEA112C8D
:101520004FEA01310EFB0CFC02F4807E42EB2242BA
:101530004FEADC4C00FB0C11C14228BF09184CEBF0
:101540000333012924BF4EF0020E4EF0804E10EB03
:10155000410F24BF4EF0010E4EF0804E08BF4EF0FA
:10156000040E4EF008015DF804EB43EBC25018BFC7
:10157000B2F57C0F38BF704741EAC07108BF20F058
:101580000100B2F57C0F38BF704729D512F0F00F7B
:101590001CBF00F1C04000F0004070470081828312
:1015A0008485868788898B8C8D8E8F919293959672
:1015B00097999A9C9D9FA0A2A3A5A7A8AAACAEB0FC
:1015C000B2B3B5B7B9BCBEC0C2C5C7C9CCCED1D401
:1015D000D7D9DCDFE2E6E9ECF0F3F7FAFE00000031
:1015E0004FEA400C0CF1807CBCF17E4F28BF704765
:1015F000B0F1C0404FF07F404CBF401040087047F2
:1016000090EA010F0CEAD11348BF42F480726245A0
:1016100038BF634507D213F47F0F23D080EA01005F
:1016200000F0004070474FF0807C1CEB400F98BFEB
:101630001CEB410FDFF840C03FF624AFAFF3008052
:101640004FF0807C1CEB400F02BF1CEB410F0B489E
:1016500070471CEB410F0CBF002020F0004040EA17
:10166000C250704712F47F0F04BF0448704742F025
:10167000FF004FEAC0507047040000040000C07F24
:10168000C2154FEA002318BF43F0004305D4D2F13E
:101690009E020AD323FA02F070474FEA4001B1F1EB
:1016A000FE4F02D24FF000007047DFF828C04FEA2B
:1016B0004001B1F17F4F88BF4CF4803C3FF6E8AE6B
:1016C0001CBF6FEAE0707047AFF300806FEAE07014
:1016D000704700006800020410F0004218BF40424A
:1016E00042F08042B0FA80F18840A2EBC15202F190
:1016F000786208BF7047410642EB202018BF5FF0B8
:10170000806C28BF20F0010070474FF08042FFF747
:10171000E9BF00004FF47F0C1CEAD0121EBF1CEA88
:10172000D11392EA0C0F93EA0C0F00F04A8090EA72
:10173000010F48BF42F480724FF0004C4CEA002089
:101740004CEA01211A44A0FB01C3A2F50002BCF13E
:10175000000F18BF43F0010302F4807CB3F1004F87
:1017600038BF5B0042EB2242180A40EBC25028BF50
:1017700013F07F0F18BFB2F57C0F38BF704708BF5A
:1017800020F00100B2F57C0F38BF70470BD582F016
:10179000FF0212F5803FC8BF704700F1C040D8BFBC
:1017A00000F00040704700F5000C5FEA4C0C48BFA9
:1017B0007047B0F1C0404FF07F404CBF4010400830
:1017C000704790EA010F0CEAD11348BF42F48072CF
:1017D000624538BF634504D280EA010000F0004052
:1017E00070474FF0807C1CEB400F98BF1CEB410F03
:1017F0004FF0030C4CF0806C3FF644AEAFF300802A
:1018000012F47F0F1FBF13F47F0F42F0FF02D005C9
:1018100070470148704700000000C07F10B412F408
:101820007F0F4FEA00204FEA012110D1B0FA80F477
:1018300000FA04F0A2EB044213F47F0F02F58032A9
:1018400018BF41F0004100D010BC18BF604740F005
:101850000040B1FA81F401FA04F1A3EB044310BC97
:1018600003F58033604780F0004090EA010F7FF578
:1018700090AD81F0004100F008B8000090EA010F3F
:1018800048BF81F000413FF584AD421A3EBF82F06F
:101890000042801A89184FEAD0524FF07F4C1CEA60
:1018A000410FA2EBD15318BF9CEA026F4FD04FF00B
:1018B000004C4CEA00204CEA012121FA03FCB0EB79
:1018C0000C0C0FD412F0FE0F18BF5FEA4C001DD5B0
:1018D000001240EBC25038BF70471CF03F0F18BFDA
:1018E00070470BE0A2F101025FEA1C2040EBC250FE
:1018F00038BF70471CF07F0F18BF7047C3F120033B
:10190000994014BF401E20F0010070474FEA122397
:1019100016D0004204BF002070474FEA9000B0FA92
:1019200080FCA2EB0C02CCF1280C60FA0CF093EADC
:10193000122F04BF00EBC25070474FEAC3707047CC
:101940005FEADC1008BF70474FEAC37070479CEA3B
:10195000026F04D010EA5C0F08BF00207047BCEB98
:10196000410F4FEA400228BF9445DFF82CC0FFF436
:1019700089ADAFF30080B2EB410F06D012F1807F4A
:1019800008BF704781F00040704790EA010F48BFE0
:101990007047024870470000020000040000C07F4A
:1019A00000F0004343EAD05323F48073C3F1C10332
:1019B00023F0004117291FD8C3F1200310FA03F1C7
:1019C000C3F1200320F07F4040F4000020FA03F030
:1019D00003F0004340EA03000DD00B46590009D341
:1019E00018BF401C06D17FEAE27398BF401C38BF85
:1019F00020F0010070477047182903EB912318BFAE
:101A00006FF00041013168BF03F0004009D6400289
:101A100003F0004000F1010004BF12F0004F20F07D
:101A20000100704770470CF00F03092B08BF082016
:101A300000F02B800A2B0BD0082B18BF704708BF73
:101A40001CF0400F0AD04FF000004FF0000170472B
:101A50001CF0400F18BF4FF0004070471CF0100FF3
:101A600008D020F0704300F07F4242EAD3014FEAF1
:101A70004370704700F0604021F07F4242EA00026C
:101A800001F07F4040EA727070471CF4801F11D053
:101A90001CF4E02F03D06FEACC31490070474FF0BF
:101AA0004050EFF3008222F0704242EA000282F3DB
:101AB000008870474FF0000070470000DC1A0008F3
:101AC00000000020E801000028010008A41B000815
:101AD000E80100206006000084010008011D000CE0
:101AE0002880C0E0E0F03838ECC482801933300B35
:101AF000F0F8FCFEFF3F1F07030108091D013FFF2F
:101B0000FFFEFEF8E0412BC0E0352AFF3729368181
:101B10001B077F14031BFFFF2BE0F837ADFFFF7F90
:101B20000F38612918021A3F4939ACFFFF0F144BD7
:101B3000FEFCAA000818C0FFDFC1E07030593B2B43
:101B400003C0011AE001480E709C9F8FCF7F7D3C3F
:101B50003E1E1F0F07FB01181D80879FBF3C480FCB
:101B6000808080E0E1F1F9DDDFDFCFC7C7C3464900
:101B700001180BF0F0F070707078383818014D0CC7
:101B80000C0C01012A030118090707070F0F1F3F5B
:101B90007F011D3F3F3F1F011A0F011916291D1913
:041BA0002501180003
:04000005080000ED02
:00000001FF
